{
  "address": "0xd61F049802FF1F6aC6aEE96073FB182341286e79",
  "abi": [
    {
      "inputs": [
        {
          "internalType": "address",
          "name": "initialOwner",
          "type": "address"
        },
        {
          "internalType": "int256",
          "name": "initialWalletsAmount",
          "type": "int256"
        }
      ],
      "stateMutability": "nonpayable",
      "type": "constructor"
    },
    {
      "inputs": [
        {
          "internalType": "address",
          "name": "owner",
          "type": "address"
        }
      ],
      "name": "OwnableInvalidOwner",
      "type": "error"
    },
    {
      "inputs": [
        {
          "internalType": "address",
          "name": "account",
          "type": "address"
        }
      ],
      "name": "OwnableUnauthorizedAccount",
      "type": "error"
    },
    {
      "anonymous": false,
      "inputs": [
        {
          "indexed": false,
          "internalType": "address",
          "name": "sender",
          "type": "address"
        },
        {
          "indexed": false,
          "internalType": "uint256",
          "name": "amount",
          "type": "uint256"
        }
      ],
      "name": "FundsReceived",
      "type": "event"
    },
    {
      "anonymous": false,
      "inputs": [
        {
          "indexed": true,
          "internalType": "address",
          "name": "previousOwner",
          "type": "address"
        },
        {
          "indexed": true,
          "internalType": "address",
          "name": "newOwner",
          "type": "address"
        }
      ],
      "name": "OwnershipTransferred",
      "type": "event"
    },
    {
      "anonymous": false,
      "inputs": [
        {
          "indexed": false,
          "internalType": "string",
          "name": "message",
          "type": "string"
        }
      ],
      "name": "WalletCreationFailed",
      "type": "event"
    },
    {
      "inputs": [],
      "name": "createWallet",
      "outputs": [],
      "stateMutability": "nonpayable",
      "type": "function"
    },
    {
      "inputs": [],
      "name": "feesCollected",
      "outputs": [
        {
          "internalType": "uint256",
          "name": "",
          "type": "uint256"
        }
      ],
      "stateMutability": "view",
      "type": "function"
    },
    {
      "inputs": [],
      "name": "getAllWallets",
      "outputs": [
        {
          "internalType": "address[]",
          "name": "",
          "type": "address[]"
        }
      ],
      "stateMutability": "view",
      "type": "function"
    },
    {
      "inputs": [],
      "name": "isCreatingNewWallets",
      "outputs": [
        {
          "internalType": "bool",
          "name": "",
          "type": "bool"
        }
      ],
      "stateMutability": "view",
      "type": "function"
    },
    {
      "inputs": [],
      "name": "owner",
      "outputs": [
        {
          "internalType": "address",
          "name": "",
          "type": "address"
        }
      ],
      "stateMutability": "view",
      "type": "function"
    },
    {
      "inputs": [],
      "name": "renounceOwnership",
      "outputs": [],
      "stateMutability": "nonpayable",
      "type": "function"
    },
    {
      "inputs": [],
      "name": "toggleCreatingNewWallets",
      "outputs": [],
      "stateMutability": "nonpayable",
      "type": "function"
    },
    {
      "inputs": [
        {
          "internalType": "address",
          "name": "newOwner",
          "type": "address"
        }
      ],
      "name": "transferOwnership",
      "outputs": [],
      "stateMutability": "nonpayable",
      "type": "function"
    },
    {
      "inputs": [
        {
          "internalType": "uint256",
          "name": "",
          "type": "uint256"
        }
      ],
      "name": "wallets",
      "outputs": [
        {
          "internalType": "address",
          "name": "",
          "type": "address"
        }
      ],
      "stateMutability": "view",
      "type": "function"
    },
    {
      "inputs": [],
      "name": "withdraw",
      "outputs": [],
      "stateMutability": "nonpayable",
      "type": "function"
    },
    {
      "inputs": [],
      "name": "withdrawFees",
      "outputs": [],
      "stateMutability": "nonpayable",
      "type": "function"
    },
    {
      "stateMutability": "payable",
      "type": "receive"
    }
  ],
  "transactionHash": "0x1ef6490ed98f575acf7edccf8263814f31e4e6870cab5c0a14d214accb86b3e7",
  "args": [
    "0x0cD517409E60335b4d1E56FB5428B2C1396d4091",
    1
  ],
  "numDeployments": 2,
  "solcInputHash": "dde61abc4d5d717da48fca59456cb42e",
  "bytecode": "0x60806040526002805460ff19166001908117909155600355600480546001600160a01b031916730cd517409e60335b4d1e56fb5428b2c1396d409117905534801561004957600080fd5b50604051610d0a380380610d0a83398101604081905261006891610222565b816001600160a01b03811661009757604051631e4fbdf760e01b81526000600482015260240160405180910390fd5b6100a0816100c4565b5060005b818112156100bc576100b4610114565b6001016100a4565b50505061025c565b600080546001600160a01b038381166001600160a01b0319831681178455604051919092169283917f8be0079c531659141344cd1fd0a4f28419497f9722a3daafe3b4186f6b6457e09190a35050565b60025460ff16610187577ff3ba6a32224bd1840dbae5a49fc0ad8a7591033967326be8175700bd4cd904e160405161017d906020808252601b908201527f57616c6c6574206372656174696f6e2069732064697361626c65640000000000604082015260600190565b60405180910390a1565b60003060405161019690610215565b6001600160a01b039091168152602001604051809103906000f0801580156101c2573d6000803e3d6000fd5b506001805480820182556000919091527fb10e2d527612073b26eecdfd717e6a320cf44b4afac2b0732d9fcbe2b7fa0cf60180546001600160a01b0319166001600160a01b039290921691909117905550565b61019d80610b6d83390190565b6000806040838503121561023557600080fd5b82516001600160a01b038116811461024c57600080fd5b6020939093015192949293505050565b6109028061026b6000396000f3fe6080604052600436106100a05760003560e01c80636a09d4b2116100645780636a09d4b214610197578063715018a6146101c15780637ad71f72146101d65780638da5cb5b1461020e578063f071db5a1461022c578063f2fde38b1461025057600080fd5b806311ebbf24146101165780631bfa86011461012d5780633ccfd60b14610158578063476343ee1461016d5780635ca66b591461018257600080fd5b3661011157604080513381523460208201819052917f8e47b87b0ef542cdfa1659c551d88bad38aa7f452d2bbb349ab7530dfec8be8f910160405180910390a16003546100ee606483610634565b6100f89190610656565b600560008282546101099190610673565b925050819055005b600080fd5b34801561012257600080fd5b5061012b610270565b005b34801561013957600080fd5b50610142610371565b60405161014f9190610686565b60405180910390f35b34801561016457600080fd5b5061012b6103d3565b34801561017957600080fd5b5061012b61042c565b34801561018e57600080fd5b5061012b6104ff565b3480156101a357600080fd5b506002546101b19060ff1681565b604051901515815260200161014f565b3480156101cd57600080fd5b5061012b61051b565b3480156101e257600080fd5b506101f66101f13660046106d3565b61052f565b6040516001600160a01b03909116815260200161014f565b34801561021a57600080fd5b506000546001600160a01b03166101f6565b34801561023857600080fd5b5061024260055481565b60405190815260200161014f565b34801561025c57600080fd5b5061012b61026b3660046106ec565b610559565b60025460ff166102e3577ff3ba6a32224bd1840dbae5a49fc0ad8a7591033967326be8175700bd4cd904e16040516102d9906020808252601b908201527f57616c6c6574206372656174696f6e2069732064697361626c65640000000000604082015260600190565b60405180910390a1565b6000306040516102f290610611565b6001600160a01b039091168152602001604051809103906000f08015801561031e573d6000803e3d6000fd5b506001805480820182556000919091527fb10e2d527612073b26eecdfd717e6a320cf44b4afac2b0732d9fcbe2b7fa0cf60180546001600160a01b0319166001600160a01b039290921691909117905550565b606060018054806020026020016040519081016040528092919081815260200182805480156103c957602002820191906000526020600020905b81546001600160a01b031681526001909101906020018083116103ab575b5050505050905090565b6103db610594565b6000546001600160a01b03166001600160a01b03166108fc60055447610401919061071c565b6040518115909202916000818181858888f19350505050158015610429573d6000803e3d6000fd5b50565b6004546001600160a01b031633146104815760405162461bcd60e51b81526020600482015260136024820152722cb7ba93b932903737ba1030b71030b236b4b760691b60448201526064015b60405180910390fd5b600554156104c95760405162461bcd60e51b8152602060048201526015602482015274139bc81999595cc818dbdb1b1958dd1959081e595d605a1b6044820152606401610478565b600554604051339180156108fc02916000818181858888f193505050501580156104f7573d6000803e3d6000fd5b506000600555565b610507610594565b6002805460ff19811660ff90911615179055565b610523610594565b61052d60006105c1565b565b6001818154811061053f57600080fd5b6000918252602090912001546001600160a01b0316905081565b610561610594565b6001600160a01b03811661058b57604051631e4fbdf760e01b815260006004820152602401610478565b610429816105c1565b6000546001600160a01b0316331461052d5760405163118cdaa760e01b8152336004820152602401610478565b600080546001600160a01b038381166001600160a01b0319831681178455604051919092169283917f8be0079c531659141344cd1fd0a4f28419497f9722a3daafe3b4186f6b6457e09190a35050565b61019d8061073083390190565b634e487b7160e01b600052601160045260246000fd5b60008261065157634e487b7160e01b600052601260045260246000fd5b500490565b808202811582820484141761066d5761066d61061e565b92915050565b8082018082111561066d5761066d61061e565b6020808252825182820181905260009190848201906040850190845b818110156106c75783516001600160a01b0316835292840192918401916001016106a2565b50909695505050505050565b6000602082840312156106e557600080fd5b5035919050565b6000602082840312156106fe57600080fd5b81356001600160a01b038116811461071557600080fd5b9392505050565b8181038181111561066d5761066d61061e56fe608060405234801561001057600080fd5b5060405161019d38038061019d83398101604081905261002f91610054565b600080546001600160a01b0319166001600160a01b0392909216919091179055610084565b60006020828403121561006657600080fd5b81516001600160a01b038116811461007d57600080fd5b9392505050565b61010a806100936000396000f3fe60806040526004361060205760003560e01c806311ebbf2414606b57600080fd5b36606657600080546040516001600160a01b03909116913480156108fc02929091818181858888f19350505050158015605d573d6000803e3d6000fd5b5060646076565b005b600080fd5b348015605d57600080fd5b600080546040805163047aefc960e21b815290516001600160a01b039092169283926311ebbf2492600480820193929182900301818387803b15801560ba57600080fd5b505af115801560cd573d6000803e3d6000fd5b505050505056fea2646970667358221220d39b20a0a9f76c29be500de341d8e7cd9b894e1bfa9db2395c12c25dabf9c5d164736f6c63430008160033a264697066735822122092a8f2cc12c9fe20606f29d762ca88e74f738cbe84435688af1b9932b43efab164736f6c63430008160033608060405234801561001057600080fd5b5060405161019d38038061019d83398101604081905261002f91610054565b600080546001600160a01b0319166001600160a01b0392909216919091179055610084565b60006020828403121561006657600080fd5b81516001600160a01b038116811461007d57600080fd5b9392505050565b61010a806100936000396000f3fe60806040526004361060205760003560e01c806311ebbf2414606b57600080fd5b36606657600080546040516001600160a01b03909116913480156108fc02929091818181858888f19350505050158015605d573d6000803e3d6000fd5b5060646076565b005b600080fd5b348015605d57600080fd5b600080546040805163047aefc960e21b815290516001600160a01b039092169283926311ebbf2492600480820193929182900301818387803b15801560ba57600080fd5b505af115801560cd573d6000803e3d6000fd5b505050505056fea2646970667358221220d39b20a0a9f76c29be500de341d8e7cd9b894e1bfa9db2395c12c25dabf9c5d164736f6c63430008160033",
  "devdoc": {
    "errors": {
      "OwnableInvalidOwner(address)": [
        {
          "details": "The owner is not a valid owner account. (eg. `address(0)`)"
        }
      ],
      "OwnableUnauthorizedAccount(address)": [
        {
          "details": "The caller account is not authorized to perform an operation."
        }
      ]
    },
    "kind": "dev",
    "methods": {
      "owner()": {
        "details": "Returns the address of the current owner."
      },
      "renounceOwnership()": {
        "details": "Leaves the contract without owner. It will not be possible to call `onlyOwner` functions. Can only be called by the current owner. NOTE: Renouncing ownership will leave the contract without an owner, thereby disabling any functionality that is only available to the owner."
      },
      "transferOwnership(address)": {
        "details": "Transfers ownership of the contract to a new account (`newOwner`). Can only be called by the current owner."
      }
    },
    "version": 1
  },
  "userdoc": {
    "kind": "user",
    "methods": {},
    "version": 1
  },
  "storageLayout": {
    "storage": [
      {
        "astId": 387,
        "contract": "contracts/MasterMerchant.sol:MasterMerchant",
        "label": "_owner",
        "offset": 0,
        "slot": "0",
        "type": "t_address"
      },
      {
        "astId": 603,
        "contract": "contracts/MasterMerchant.sol:MasterMerchant",
        "label": "wallets",
        "offset": 0,
        "slot": "1",
        "type": "t_array(t_address)dyn_storage"
      },
      {
        "astId": 606,
        "contract": "contracts/MasterMerchant.sol:MasterMerchant",
        "label": "isCreatingNewWallets",
        "offset": 0,
        "slot": "2",
        "type": "t_bool"
      },
      {
        "astId": 609,
        "contract": "contracts/MasterMerchant.sol:MasterMerchant",
        "label": "_feePercentage",
        "offset": 0,
        "slot": "3",
        "type": "t_uint256"
      },
      {
        "astId": 612,
        "contract": "contracts/MasterMerchant.sol:MasterMerchant",
        "label": "_adminAddress",
        "offset": 0,
        "slot": "4",
        "type": "t_address"
      },
      {
        "astId": 614,
        "contract": "contracts/MasterMerchant.sol:MasterMerchant",
        "label": "feesCollected",
        "offset": 0,
        "slot": "5",
        "type": "t_uint256"
      }
    ],
    "types": {
      "t_address": {
        "encoding": "inplace",
        "label": "address",
        "numberOfBytes": "20"
      },
      "t_array(t_address)dyn_storage": {
        "base": "t_address",
        "encoding": "dynamic_array",
        "label": "address[]",
        "numberOfBytes": "32"
      },
      "t_bool": {
        "encoding": "inplace",
        "label": "bool",
        "numberOfBytes": "1"
      },
      "t_uint256": {
        "encoding": "inplace",
        "label": "uint256",
        "numberOfBytes": "32"
      }
    }
  }
}